:020000040800F2
:100000000010002079240008537D0008537D00086B
:10001000537D0008537D0008537D0008537D000880
:10002000537D0008537D0008537D0008537D000870
:10003000537D0008537D0008537D0008537D000860
:10004000537D0008537D0008537D0008537D000850
:10005000537D0008537D0008537D0008537D000840
:10006000537D0008537D0008537D0008E1220008FD
:10007000817C0008537D0008537D0008537D0008F3
:10008000537D0008537D0008537D0008537D000810
:10009000537D00088D2D0008537D0008537D000816
:1000A000537D0008537D0008537D0008537D0008F0
:1000B000537D0008537D0008537D0008537D0008E0
:1000C000537D0008537D0008537D0008537D0008D0
:1000D000537D0008537D0008537D0008537D0008C0
:1000E000537D0008537D0008537D0008537D0008B0
:1000F000537D0008537D0008537D0008537D0008A0
:10010000537D0008537D0008537D0008537D00088F
:10011000537D0008537D0008537D0008537D00087F
:10012000537D0008537D0008537D0008537D00086F
:10013000537D0008537D0008537D0008537D00085F
:10014000537D0008537D0008537D0008618100083D
:10015000537D0008537D0008537D0008537D00083F
:10016000537D0008537D0008537D0008537D00082F
:10017000013800D0FCE770472DE9F04F2DED068BDC
:10018000C3B0B0F86630F3EE0F8A1A0AB3F5004F29
:1001900028BFA2F5807263F0FF0328BF92B25B0113
:1001A0005201A3F500530A804B80B0F86430DFEDB4
:1001B000EA9A9A0A07EE902AF8EEE77AF4EEE87ADD
:1001C000F1EE10FAC4BF9FEDEE7A77EEC77A9FED9D
:1001D000E37AC3F3090327EE879A07EE903AF8EE25
:1001E000E77AF4EEE97AF1EE10FAC4BF9FEDDC7A1B
:1001F00077EEC77AB4EE007A8246B0F86260008C7F
:100200008B4600F4704027EE878A06F0BBF89FED1E
:10021000CE1B9FEDCF0B04460D4600F05DFF8BED2E
:10022000019A53EC102B8BED028A20462946ABF83D
:100230000C6006F03BFA0022CA4B05F057FF06F0AF
:10024000EDFBBAF860309FEDC89AABF814309AF81D
:100250007820BAF8783007EE902AF8EEE77AF4EED4
:10026000C97AF1EE10FAC4BF9FEDC07A77EEC77A73
:100270009FEDBF7A67EE877A1B0ACBED067A07EE11
:10028000903AF8EEE77AF4EEC97A4FF6D873F1EEC9
:1002900010FABAF87020C8BF9FEDB47AC2F30132E9
:1002A0008BF82420BAF87E20CBF84030BAF87E30A4
:1002B000C2F3013202EB82024FEA4202C3F303139C
:1002C000ABF8443013FB02F3BAF87E109BB2C1F3D3
:1002D0000321ABF8443001FB0233ABF846304FF456
:1002E000C873ABF848304FF00103C8BF77EEC77A48
:1002F0009FEDA07ABAF87E2067EE877A02F00F02AF
:10030000083293409AF87A20CBED0A7A07EE102A49
:10031000B8EEC77A07EE903ABAF87A308BED0B7ADE
:100320001B0A07EE103AB8EEC77A9AF87C208BEDDC
:100330000C7A07EE102AB8EEC77ABAF87C308BED4B
:100340000D7A1B0A07EE103AB8EEC77A9FED876A5E
:100350008BED0E7AF8EEE77ACBF810000BF12C0358
:100360000BF13C02B3EC017AB4EEC97AF1EE10FA6B
:10037000C4BF37EE467A03ED017A53ED016A86EE8B
:10038000A77A9A4203ED017AECD1BAF874207A4B3D
:10039000C2F30904900544BFA4F58064A4B2CBF86D
:1003A0003C30B2F5004F4FEA922324BF403B9BB252
:1003B00025B21C44BAF87230BAF84080C3F309037E
:1003C00007EE903AF8EEE77AF4EEE97AF1EE10FAF9
:1003D000C4BF9FED637A77EEC77A17EE900A05F0F7
:1003E000E3FF4FEA183808F11B08064640460F465F
:1003F00005F0B8FF9FED560B41EC110B00F06CFEC1
:10040000304653EC102B394606F050F906F006FB47
:10041000BAF87230B7EE008A9B0A07EE903AF8EE0F
:10042000E77AF4EEE87AF1EE10FAC4BF9FED547A61
:1004300077EEC77A9FED517A9AF8763007EE878A81
:1004400007EE903AF8EEE77AF4EEC97AF1EE10FA98
:10045000C4BF9FED467A77EEC77A09EE900A17EE91
:10046000900A05F0A1FF0646BAF870000F46C0F3E7
:100470000310083005F076FF9FED350B41EC110BB2
:1004800000F02AFE304653EC102B394606F00EF9E8
:1004900006F0C4FABAF87630CBF820001B0A07EE53
:1004A000903AF8EEE77AF4EEC97AF1EE10FAC4BFAA
:1004B0009FED2E7A77EEC77A17EE900A05F074FF5B
:1004C0000646BAF870000F46C0F3032005F04AFF55
:1004D0009FED1F0B41EC110B00F0FEFD304653EC7D
:1004E000102B394606F0E2F806F098FA28EE298A31
:1004F0000BF5805324B2CBF81C00C3ED949A83ED26
:10050000958A4FF44060A3F85852A3F85A4206F077
:1005100077FC8146002800F04A815046BAF8403006
:100520000AACC3F3031203F00F010292C3F30322D8
:100530001B0B1E33069330F8423F05920793234668
:100540000AF14E051EE000BF0000000000002C4034
:1005500000000000000000400080FF4300008039E0
:1005600000008044000020400000FE420000804364
:100570000000003D0000003917B751B90000003CF1
:100580000000804230F8022F103302F00F0643F8CB
:10059000106CC2F3031643F80C6C8542C2F30326B9
:1005A0004FEA123243F8086C43F8042CEAD10022D7
:1005B00054F8043B0132072BC4BF103B44F8043C01
:1005C000182AF5D122A803460AF14E040AF15E0565
:1005D00034F8022F103302F00F0643F8106CC2F308
:1005E000031643F80C6CA542C2F303264FEA1232FD
:1005F00043F8086C43F8042CEAD1002250F8043B7D
:100600000132072BC4BF103B40F8043C202AF5D12F
:1006100001238B4007EE903A0025B8EEE78A1FEDE4
:1006200028AA9FEDDF9B0AF17E07B8460026CDF889
:10063000009009EBC51438F8023F059AC3F305137F
:1006400007EE903AF8EEE77AF4EEE87AF1EE10FA77
:10065000C8BF77EECA7A0AAB53F8253002999340A7
:10066000079AC4ED007A134422AA52F8262094ED8A
:10067000007A8A40134407EE903AF8EEE77A47EEA4
:10068000087AE4EC017A17EE900A05F08DFECDE9C8
:100690000801069805F066FEB0EE490AF0EE690A18
:1006A00041EC110B00F018FDDDE9080153EC102BB3
:1006B00005F0FCFF06F0B2F90BF5805393ED957A47
:1006C000D3ED947A77EE877A9BED067A06EE900A60
:1006D00067EE877AB6EE007A47EEC76A16EE900AA2
:1006E00005F062FE02460B46B5A1D1E9000105F016
:1006F000DDFF06F093F90136202E44F8040C9AD160
:100700000135182D07F140078FD14B46B3EC018A14
:1007100009F54065F3EC017AF4EE487AF1EE10FA4F
:1007200037FE888A9D42F5D10024A7A7D7E9006744
:1007300018EE100A05F038FE32463B4604F1010877
:1007400006F0FCF8002840F06B819FED958BE4B239
:100750000BF14808009B53F8040B009305F024FEAE
:10076000064620460F4605F0FDFDB0EE480AF0EEC5
:10077000680A41EC110B00F0AFFC304653EC102B33
:10078000394605F069FE06F049F905F00DFE864B85
:10079000002205F0ABFC06F021F9009B28F8020FBF
:1007A0009D42D7D148468BF84A4606F031FB554664
:1007B0000AAC2246BAF82010C1F30323009335F89F
:1007C000223F01F00F0E0293C1F303180AF12E032A
:1007D00035F8020F103200F00F0642F8106CC0F32B
:1007E000031642F80C6CAB42C0F303264FEA1030FC
:1007F00042F8086C42F8040CEAD12546002055F86E
:10080000042B0130072AC4BF103A45F8042C1828DD
:10081000F5D10AF13E0522AA33F8020F103200F09A
:100820000F0642F8106CC0F3031642F80C6C9D42A0
:10083000C0F303264FEA103042F8086C42F8040C6B
:10084000EAD1002222A850F8043B0132072BC4BF92
:10085000103B40F8043C202AF5D100270AF1BE00E5
:100860000BF24A65009A54F8043BA0F1400693400D
:10087000029A0DF1880C13449BB219462A4636F8A9
:10088000029F4FEA9923B9F5004F28BF403B5380A0
:100890005CF8043B32F9029F03FA08F30B4409FAAF
:1008A0000EF94B44B0421380E9D12037B7F5407FB1
:1008B00000F1400005F14005D4D14FF4406006F04E
:1008C0009FFA0446002840F0AF80384806F0F2FB5B
:1008D0004FF4406006F094FA0446002840F09F81EF
:1008E000334806F0E7FBBAF86A30B3EE0F7A03F04C
:1008F0003F0107EE901AF8EEE77AF4EEC77AF1EED0
:1009000010FAC4BF9FED2B7A77EEC77A9FED2A7A53
:10091000C3F3841167EE876A07EE901AB2EE0E6A8F
:10092000F8EEE77AF4EEC67AF1EE10FAC4BF9FED66
:10093000237A77EEC77AB6EE007ADB0A27EE877A5B
:1009400007EE903AF8EEE77AF4EEC67AF1EE10FA96
:10095000BAF81420C8BF9FED196A6FEA12120BF59E
:10096000805302F080028BF82520C8BF77EEC67A4C
:1009700083ED987AB4EE007A4FF6FF72002467EEAA
:10098000877AA3F86822A3F87222A3F86A22A3F850
:100990007422A3F86C22A3F87622A3F86E221BE03F
:1009A00000000000000000400000E03F1C8F000835
:1009B000428F0008000080420000803D000000429D
:1009C0008DEDB5A0F7C6B03E9A999999D9FFDF4051
:1009D0000000000000000040A3F87822A3F8702275
:1009E000A3F87A2221462246C3ED976AC3ED997A8D
:1009F0000AF17E0333F8025F481C002D40F00082AC
:100A000002F634152BF8151081B20132B1F5407F92
:100A100092B200F00D82052AECD16FF0020002E2E2
:100A200038EE088A444683E6BAF86C3000271A0A82
:100A30008DF88A30BAF86E308DF888208DF88B30BA
:100A40001A0ABAF870308DF88920C3F3031909F136
:100A50000802009203F00F020123934007EE903A40
:100A6000F0EE088AB8EEE78A1FED279B0AF18009AD
:100A7000A0463D4604EB870605F00103C5F340128E
:100A800003EB420239F815300098C3F3420307EE36
:100A9000903AF8EEE77AF4EEE87AF1EE10FAC4BF95
:100AA000B2EE007A77EEC77AC6ED007A02F584736B
:100AB0006B4413F9803C96ED007A07EE903AF8EE1D
:100AC000E77A47EE087AE6EC017A05F04BFCB0EEE7
:100AD000490AF0EE690A41EC110B00F0FDFA56F8F4
:100AE000040C8DED020B05F05FFCDDE9022305F03F
:100AF000DDFD05F093FF013507F12003AB4246F819
:100B0000040CB9D1B5F5407F01D02F46B0E7A1461E
:100B100059F8040B05F048FC41EC100B06F01AFFE5
:100B200051EC100B05F07AFF08EE100A04F5406551
:100B300059F8040B05F038FC41EC100B06F00AFFE5
:100B400018EE100A57EC106B05F02EFC02460B460F
:100B50003046394605F010FF68B159F8040C05F02D
:100B600023FC41EC100B06F0F5FE51EC100B05F0E8
:100B700055FF08EE100A4D45DAD14FF0000918EE86
:100B8000100A05F011FCD0A3D3E9002309F10106F6
:100B900005F0D4FEC0BB9FEDCA8B5FFA89F90BF656
:100BA0004B4658F8040B05F0FFFBCDE90001484621
:100BB00005F0D8FBB0EE480AF0EE680A41EC110BE4
:100BC00000F08AFADDE9000153EC102B05F044FC3B
:100BD00005F024FF07EE900AF5EEC07AF1EE10FA68
:100BE00016D505F0E1FB0022B94B05F07DFA05F0C2
:100BF000CDFE454540B206F8010FD2D120468BF814
:100C00004C9F06F005F963E638EE088AB146B6E770
:100C100005F0CAFB0022AE4B05F068FAE7E70025B5
:100C20009FEDA78BBAF86830BAF870901A0BB3F53D
:100C3000004F28BF103A52B219058DF88820C3F32F
:100C4000032248BF103A8DF88A201F06C3F303120F
:100C500048BF103A8DF889201E0703F00F0248BFE5
:100C6000103A8DF88B20C9F303294FF00008009447
:100C700004EB850608EB0503C3F3401203F0010300
:100C800003EB420303F584736B4413F9800C08F102
:100C9000010807EE900AF8EEE77A17EE900A05F0E1
:100CA00083FBCDE90201484605F05CFBB0EE480A43
:100CB000F0EE680A41EC110B00F00EFADDE90201DA
:100CC00053EC102B05F0F2FC05F0A8FEB8F1200F54
:100CD00046F8040BCED12035B5F5407FC5D1254669
:100CE00055F8040B05F060FB41EC100B06F032FEEA
:100CF00051EC100B05F092FE08EE100A04F540646A
:100D000055F8040B05F050FB41EC190BB0EE490A05
:100D1000F0EE690A06F01EFE18EE100A57EC106B92
:100D200005F042FB02460B463046394605F024FEEC
:100D300058B1B0EE490AF0EE690A06F00BFE51EC2C
:100D4000100B05F06BFE08EE100AAC42D8D100255E
:100D50005DA7D7E9006718EE100A05F025FB3246BB
:100D60003B4605F1010805F0E9FD00283DD19FED66
:100D7000548B4FF00008DFF85891EDB20BF64C762B
:100D8000009B53F8040B009305F00EFBCDE9020124
:100D9000284605F0E7FAB0EE480AF0EE680A41ECA2
:100DA000110B00F099F9DDE9020153EC102B05F06D
:100DB00053FB05F033FE07EE900AF5EEC07AF1EE34
:100DC00010FA16D505F0F0FA42464B4605F08CF9BC
:100DD00005F0DCFD009B40B29C4206F8010FCFD12C
:100DE0000BF5805383F84D527DE538EE088A454671
:100DF000B1E705F0D9FA42464B4605F077F9E7E747
:100E0000ED0741BF04F638150BEB45056980013449
:100E100081B248BFA4B2B1F5407F09D0052C7FF460
:100E2000E9AD6FF0030043B0BDEC068BBDE8F08F79
:100E3000052A3FF4F2AD052CF3D01319042B54DC32
:100E400000250BF593560836ABB29A4214D800250C
:100E50000BF593561236ABB29C421ED80BF5935647
:100E6000083606EB42050BF59352103202EB4404B0
:100E7000B5423DD0174634E005F101084746BA4275
:100E800001DC4546E0E736F8171036F8150007F0A4
:100E90009CF90028C7D10137F1E705F10108474661
:100EA000BC4201DC4546D6E736F8171036F8150087
:100EB00007F08BF90028B6D10137F1E7AFF30080D6
:100EC00000000000000000403333333333B34F40A1
:100ED0000000E03F37F8021F308807F076F900285D
:100EE000A1D1BC42F6D10236C2E76FF004009AE706
:100EF000002098E7000000002DE9F0412DED028B65
:100F0000B0F85436B0F8808607EE903A1B04B8EE7D
:100F1000678A48BFDFED287A91F8240048BF38EE91
:100F2000678A15460C4605F01DFA9FED1F0B41EC34
:100F3000110B00F0D1F8C8F38128404657EC106B34
:100F400005F020FA9FED180B41EC110B00F0C4F8EE
:100F5000304653EC102B394605F0A8FB05F05EFD3A
:100F6000B4F9023007EE100A07EE903AF8EEE77A8D
:100F7000B4F9003057EE087A07EE103AB8EEC77AA7
:100F8000C7EE877A17EE900A05F00EFA08A3D3E9A8
:100F9000002305F0ABF805F041FDBDEC028B2860A5
:100FA0000020BDE8F08100BF00000000000000400C
:100FB0006666666666660A400000804700000000BC
:100FC0002DE9F3470546924601AA0C46FFF794FF28
:100FD000B5F8403607EE903A1A04B8EE677A48BF83
:100FE000DFED3B7AB5F8003648BF37EE677A07EE9B
:100FF000903A1B0448BFDFED366AF8EE677A48BFC7
:1010000077EEE67AD4ED046A47EE267AC7EE277AC1
:1010100017EE900A05F0C8F99FED271B9FED280BEE
:1010200006460F4600F058F8304653EC102B394670
:1010300005F012FA05F0F2FC05F0B6F90646019843
:101040000F4605F0B1F920A3D3E9002305F04CF8D1
:1010500080466068894605F0A7F902460B4640467F
:10106000494605F0F9F900221A4B05F03FF802460F
:101070000B463046394605F019FB0646A0890F4657
:1010800005F080F902460B463046394605F02CF84B
:1010900005F0C4FC94ED027A06EE900AC6EE877A5B
:1010A000B3EE097A002077EE877ACAED007A02B0B3
:1010B000BDE8F087AFF30080000000000000324080
:1010C00000000000000000406666666666660A4032
:1010D000000080470000F03FF8B555EC114B2DEDB6
:1010E000028B57EC106B00F06FF822462B4620461F
:1010F0002946B0EE408AF0EE608A06F069FD78B9C4
:10110000002200233046394605F00EFCF0B10022E3
:1011100000232046294605F007FC40B19FED288BAF
:10112000B0EE480AF0EE680ABDEC028BF8BD45EC63
:10113000104B06F017FC0028F2D0002200232046B6
:10114000294605F0FBFB0028EAD02EE0B0EE480A65
:10115000F0EE680A06F006FCA0B10022002351EC74
:10116000180B05F0E1FB0028DAD047EC106B06F015
:10117000F9FB0028D4D045EC104B06F0F3FB002817
:10118000CED012E047EC106B06F0ECFB0028E4D068
:1011900045EC104B06F0E6FB0028DED053EC182B94
:1011A00051EC180B06F014FD20B906F027FD2223A0
:1011B0000360B5E706F022FD21230360B0E700BF1E
:1011C000000000000000F03F2DE9F04F55EC114BFE
:1011D00025F0004393B053EA040057EC106B12D192
:1011E000B31987F4002246495241984291411ED2D8
:1011F00022462B463046394604F078FF41EC100B6E
:1012000013B0BDE8F08F3F4827F0004ABB46B04618
:10121000824511D93C4A5A4452EA0802E8D12319BE
:1012200085F40021364849419A428841E0D39FED38
:10123000320B13B0BDE8F08F29462246504601D14B
:10124000002ED5D1DFF8BCC06345E3D801D1002A18
:10125000E0D1BBF1000F1FDB002A5DD1DFF8A4C095
:1012600063450AD09146294A934240F059840029A7
:10127000C0F2188547EC106BC2E7234B534453EA86
:101280000803D4D0224B9A4540F2D9840029C0F2F9
:10129000528545EC104BB3E7DFF878C0634540F268
:1012A0008483002A40F08D83164A9342E5D04FF0A4
:1012B000020904910293009047EC106B06F04AFB80
:1012C0000098029B0499B8F1000F00F04D834FEA9B
:1012D000DB7808F1FF3859EA080231D132463B4643
:1012E0001046194604F000FF02460B4605F0DEF9F1
:1012F00041EC100B84E700BF000000000000F03F4D
:101300000000F0FF0000F07F000010C00000F03F80
:10131000FFFFEF3FFFFF3F434FF0000904910293AF
:10132000009047EC106B06F015FB0098029B0499A7
:10133000B8F1000F00F018834FEADB7808F1FF38AE
:10134000D14A934200F24D83D04B00220BEA0303B3
:1013500053B9CF4B51EC100B05F07EF86FF034020F
:1013600041EC100B10EE900A0315C0F31300C94FA7
:10137000A3F2FF3307439A18C74B98420D9240F3EC
:101380004A84C64B984240F3A1840132A7F58017E6
:1013900000260D929FEDA67B8DED087B9FEDA67B31
:1013A0008DED067B9FEDA27B8DED107B5BEC10AB92
:1013B000DDE906235046394604F096FEBB46DDE9DA
:1013C0000623CDE90A015046394604F08FFE024655
:1013D0000B460020AF497F1005F068F902460B4626
:1013E00047F00057DDE90A01CDE90E2305F034F896
:1013F0000A46014607F500230020CDE90212CDE997
:101400000412002102460291991906460F460B4626
:101410009DED027B51EC170B8DED007B05F01CF868
:1014200002460B46DDE90A0104F05EFEDDE9062313
:10143000CDE90A013046394604F056FE02460B4615
:101440005046594604F050FEDDE90A67DDE9002305
:1014500005F002F802460B463046394604F044FED9
:10146000DDE90E2304F0F8FFDDE90467CDE90601AC
:1014700032463B463046394604F0EEFF82468B4604
:101480006FA3D3E9002304F0E7FF6FA3D3E90023A0
:1014900004F02CFE52465B4604F0DEFF6CA3D3E959
:1014A000002304F023FE52465B4604F0D5FF6AA3F6
:1014B000D3E9002304F01AFE52465B4604F0CCFF49
:1014C00067A3D3E9002304F011FE52465B4604F003
:1014D000C3FF65A3D3E9002304F008FE06460F46C8
:1014E00052465B465046594604F0B6FF02460B464C
:1014F0003046394604F0B0FF06460F46DDE900AB42
:10150000DDE9040152465B4604F0F0FDDDE9062307
:1015100004F0A2FF32463B4604F0E8FD5246064680
:101520000F465B46504659464FF0000A04F094FFC0
:1015300002460B46CDE90A230022594B04F0D6FDA2
:1015400032463B4604F0D2FD8B4652465B46DDE90F
:10155000000104F081FF0022514BCDE9000150460B
:10156000594604F0C1FDDDE90A2304F0BDFD024641
:101570000B463046394604F0B7FDDDE9042304F09C
:101580006BFF06460F4652465B46DDE9060104F056
:1015900063FF02460B463046394604F0A7FD064677
:1015A0000F4632463B46DDE9000104F09FFD8B46C5
:1015B00050462FA3D3E9002304F04EFFDDE90023BA
:1015C000CDE900015046594604F08EFD02460B4617
:1015D0003046394604F088FD27A3D3E9002304F000
:1015E0003BFF06460F465046594625A3D3E9002344
:1015F00004F032FF02460B463046394604F076FDD1
:10160000DDE9102304F072FD82468B460D9804F04C
:10161000B9FE524606460F465B46DDE90001CDE9BC
:1016200004AB04F063FDDDE908233BE0AFF3008089
:101630000000000000000000000000000000F03F7B
:10164000EF4E454A287ECA3F65DBC9934A86CD3FA7
:1016500001411DA96074D13F4D268F515555D53F8D
:10166000FFAB6FDBB66DDB3F033333333333E33F25
:10167000000000E009C7EE3FFD033ADC09C7EE3F7A
:10168000F5015B14E02F3EBE0000E0410000F07F5A
:10169000000040430000F03F8E98030079B60B0035
:1016A0000000084004F022FD32463B4604F01EFDD7
:1016B000002032463B4682468B4604F015FDDDE9AC
:1016C000082304F011FDDDE9002304F00DFD0246BE
:1016D0000B46DDE9040104F007FDCDE9040109F141
:1016E000FF3353EA080300F016829FEDC77B8DEDB0
:1016F000027B002320462946CDE900450093DDE921
:10170000008942464B4604F0EFFC5B46524604F02B
:10171000A3FE06460F4622462B46DDE9040104F0EF
:101720009BFE02460B463046394604F0DFFC42463B
:1017300004460D464B4659465046A04604F08CFEE2
:1017400006460F462046294632463B46A94604F047
:10175000CDFCC14B04460D4699428B4640F3B78100
:10176000BE4B0B44034340F0C98240464946A8A300
:10177000D3E9002304F0BAFC32463B46CDE9000130
:101780002046294604F0B0FC02460B46DDE9000184
:1017900005F0F2F8002840F0B1824FF400735B448A
:1017A000AF4CBBF1000F4FF00000C3F30A52C3F37C
:1017B0001301A2F2FF3241F4801144FA02F4C2F1A3
:1017C000140241FA02FA04EA0301024630460B46CB
:1017D000B8BFCAF1000A394604F086FC02460B463F
:1017E00006460F46404649464FEA0A5B04F07EFC37
:1017F0000D460024294688A3D3E90023204604F09F
:101800002BFE32463B46CDE900012046294604F036
:101810006BFC02460B464046494604F065FC80A33B
:10182000D3E9002304F018FE06460F462046294659
:101830007DA3D3E9002304F00FFE02460B46304699
:10184000394604F053FC06460F4632463B46DDE976
:1018500000894046494604F049FC424604460D468C
:101860004B4604F041FC02460B463046394604F034
:101870003BFC2246804689462B462046294604F0FA
:10188000EBFD06460F466AA3D3E9002304F0E4FD0E
:1018900069A3D3E9002304F027FC32463B4604F059
:1018A000DBFD67A3D3E9002304F020FC32463B466E
:1018B00004F0D2FD64A3D3E9002304F015FC324602
:1018C0003B4604F0C9FD62A3D3E9002304F00EFCFB
:1018D00032463B4604F0C0FD02460B4620462946F0
:1018E00004F002FC06460F462046324629463B4697
:1018F00004F0B2FD00224FF08043CDE900013046F4
:10190000394604F0F1FB02460B46DDE9000104F024
:10191000CDFE424606460F464B462046294604F079
:101920009BFD42464B4604F0E1FB02460B46304627
:10193000394604F0D9FB22462B4604F0D5FB02467B
:101940000B460020474904F0CFFB0B4659440246A2
:10195000B1F5801FC0F2CA811046DDE9022304F010
:101960007BFD41EC100B4BE42BF04042DFF8F4C060
:10197000624503D0BAF1000F7FF4A9AC002907DA61
:101980000020384953EC102B04F090FE41EC100B72
:10199000BBF1000FBFF634AC334B534453EA090399
:1019A00040F0B68153EC102B9AE4DFF8C4C06345D5
:1019B00060D8002A72D1B1F1804F00F07D8191464C
:1019C00077E447EC106B0291009305F0C3FF009B96
:1019D0000299B8F1000F00F05A814FF002094FF060
:1019E0000008224A9342224B40F2AD809A4540F2D1
:1019F0002181002940F32181002013B0BDE8F04F80
:101A000000F08ABAAFF30080000000000000F03F51
:101A1000FE822B654715973C00000000432EE63FF1
:101A2000EF39FAFE422EE63F396CA80C615C20BE0D
:101A3000D0A4BE726937663EF16BD2C541BDBB3ED4
:101A40002CDE25AF6A56113F93BDBE166CC1663FB2
:101A50003E5555555555C53FFFFF8F40000070BF9F
:101A60000000F0FF0000F03F000010C00000F04355
:101A7000FFFFEF3F4FEA235CACF2FF3CBCF1140FD9
:101A800040F3F380CCF1340C22FA0CFE0EFA0CFC7D
:101A9000944500F05481002A3FF4E4AB009147ECF8
:101AA000106B05F057FF0099B8F1000F7FF416ACEA
:101AB0002BF0404BCA4B9B4503D0BAF1000F7FF48B
:101AC0000DAC0029C0F244814FF0000964E721F019
:101AD0000043DFF81CC3634540F2BE80C14B0B449A
:101AE00003430AD132463B4604F0FEFA42464B46D7
:101AF00004F038FF00283FF450AE00220023DDE957
:101B0000020104F01BFF003818BF012013B0BDE82C
:101B1000F04F00F0F9B99FED9E7B8DED027BE8E57B
:101B2000B1F1804F00F0C880BBF1000FFFF6C1ABF0
:101B3000AD4A91427FF4BDAB47EC106B13B0BDE8EA
:101B4000F04F05F04BBF9A4574D3A54B9A453FF62D
:101B500050AF0022A24B51EC100B04F0C5FA8246A4
:101B60008B468DA3D3E9002304F076FC8CA3D3E944
:101B70000023CDE900015046594604F06DFC0022D7
:101B80009A4BCDE902015046594604F065FC0246E5
:101B90000B4685A1D1E9000104F0A6FA52465B4646
:101BA00004F05AFC02460B4600208F4904F09CFAD0
:101BB00006460F4652465B465046594604F04CFCDA
:101BC00002460B463046394604F046FC78A3D3E97A
:101BD000002304F041FC02460B46DDE9020104F05B
:101BE00083FA06460F4632463B46DDE900AB5046D7
:101BF000594604F07BFA002052465B4682468B46EB
:101C000004F072FA02460B463046394604F06CFA8C
:101C1000CDE9040163E59FED687B00268DED087B2F
:101C20009FED677B8DED067B9DED087B8DED107B39
:101C3000FFF7BCBB0029FFF6DFAE002066E70029F6
:101C40009FED5D0BBFF6DCAA05F1004300EE104AE4
:101C500000EE903AFFF7D4BA634A934200F28E80C6
:101C6000DDE9002393469246C3E5002A7FF416AFD0
:101C7000CCF1140C43FA0CFE0EFA0CFC9C457FF4DC
:101C8000F1AA0EF0010ECEF10209FFF7ECBA2BF02B
:101C9000404B534A934549D0BAF1000F46D04FF01C
:101CA00002099EE600204E4932463B4604F0FEFC07
:101CB00041EC100BFFF7A4BA32463B46304639469A
:101CC00004F0CAFB41EC100BFFF79ABA9FED3E7B84
:101CD0004FF480268DED087B9FED3D7B8DED107BD5
:101CE0009FED3D7B8DED067BFFF760BB504643ECDF
:101CF000102B00F081F851EC100B2EE6002200238F
:101D0000DDE9020104F01AFE003818BF012074E674
:101D1000B9F1010F7FF474AA10EE901A10EE102A98
:101D200001F1004343EC102BFFF76ABA00291ADBDC
:101D30004FF0020930E69FED200BFFF761BA0EF07D
:101D4000010ECEF10209002A3FF48DAAFFF7E6BA90
:101D500053EC102B0020224904F0A8FC4FF000099E
:101D600041EC100B18E653EC102B00201C4904F03A
:101D70009DFC4FF0020941EC100B0DE61B154FF4D2
:101D80008012A3F2FE3342FA03F308E5AFF30080BA
:101D9000000000000000F0BF000000604715F73FA2
:101DA00044DF5DF80BAE543E555555555555D53F5E
:101DB000FE822B654715F73F000000000000000081
:101DC000000000000000F03F0000004003B8E23FC8
:101DD00006D0CF43EBFD4C3E000000000000F83F72
:101DE0000000F03F00346F3F0000E03F0000D03FB4
:101DF000FFCB904000000000F8B553EC102B0446D8
:101E0000C3F30A50194670BB23F00041104611433A
:101E100028D0394D19460022384B04F01DFBAC4246
:101E200002460B4650DBC1F30A5036384CF2503CA8
:101E3000644522DC044440F2FE7084421DDC002C28
:101E400033DC14F1350F37DB2D48363416462D4B75
:101E50000840002240EA04573046394604F0FCFAB4
:101E600041EC100BF8BD40F2FF7C6045DED110461E
:101E700004F03CF941EC100BF8BD002B16A1D1E9A0
:101E8000000107DB14A3D3E9002304F0E5FA41ECD9
:101E9000100BF8BD12A1D1E900010FA3D3E9002373
:101EA00004F0DAFA41EC100BF3E71548084040EA79
:101EB000045343EC102BF8BD002B0BA1D1E900011A
:101EC00002DA0BA1D1E9000107A3D3E9002304F052
:101ED000C3FA41EC100BF8BD9C7500883CE4377EDA
:101EE0009C7500883CE437FE59F3F8C21F6EA501CB
:101EF00059F3F8C21F6EA581B03CFFFF00005043AC
:101F0000FFFF0F800000903C9FED010B05F04ABDE4
:101F100000000000000000109FED010B05F042BD25
:101F200000000000000000700348044B834202D010
:101F3000034B03B118477047B0100020B0100020C9
:101F400000000000064B0749C91A891048BF01313B
:101F5000491003D0044B0BB101481847704700BF2C
:101F6000B0100020B01000200000000010B5064C9A
:101F7000237843B9FFF7D8FF044B13B10448AFF3FC
:101F800000800123237010BDE43F0020000000000A
:101F90003090000808B5054B1BB105490548AFF363
:101FA0000080BDE80840FFF7CDBF00BF0000000083
:101FB000B010002030900008A3F5803A704700BFB1
:101FC000174B002B08BF134B9D46FFF7F5FF002171
:101FD0008B460F461348144A121A06F042FA0E4B6B
:101FE000002B00D098470D4B002B00D098470020C5
:101FF000002104000D000D48002802D00C48AFF36A
:10200000008005F07DF92000290005F0FEFD04F0B8
:10201000E5FE00BF00000800000000000000000016
:1020200000100020B010002014400020000000002C
:1020300000000000F0B585B01B4806F0F7F81A4C18
:1020400070BB044640F24236174D184F384635F8FB
:10205000021B013405F02EF8B442F7D1144805F004
:1020600029F802AA13491048FEF746FF03AA1149AE
:102070000D48FEF7A5FFDDED027AFCEEE77A17EEDC
:10208000903ADDED037AFCEEE77A9AB217EE903AD9
:102090009BB211460093084805F00CF805B0F0BD5E
:1020A000204606F0C3F8CBE75C390020C088000862
:1020B000C9880008C8100020D18800081FB5114C3D
:1020C000114B22681B689A4213DAFFF7B3FF2368AB
:1020D000FA20013303A9236003F0A0FD034630B9C1
:1020E000CDE90000094A0399094806F008F804B050
:1020F00010BD084804F0DEFF054804B0BDE81040FC
:1021000003F010BD6423002010100020BD20000843
:1021100044230020098900081FB5114804F0CAFFB4
:10212000104C206803F0FCFEB0B9062006F01FF941
:1021300003F036FF0A2003F055FDFA2003A903F04F
:102140006DFD034630B9CDE90000074A0399074801
:1021500005F0D5FF04B010BD206803F0E1FEE0E714
:102160003E89000828100020BD20000844230020DC
:1021700010B5274C01F074FB01F09CFD236F23F098
:10218000070343F00303236705F04BFE214B0020B8
:102190009B6ADB015EBF4FF480321F4B9A62D4F81A
:1021A000203123F0070343F00203C4F82031D4F8B0
:1021B000283123F0070343F00203C4F82831D4F890
:1021C000403123F0030343F00203C4F84031D4F854
:1021D000603123F0030343F00203C4F86031D4F804
:1021E000403223F0030343F00203C4F84032D4F832
:1021F000003223F0070343F00203C4F80032D4F89E
:10220000083223F0070343F00203C4F8083210BD7C
:10221000008000500040005A0060005A08B53A2083
:10222000012101F0CDF8BDE80840014800F0DEBA18
:102230001410002030B59DB0224D08AC0FCD0FC456
:1022400095E80F0084E80F002C22002111A806F069
:1022500008F91D4B0124109356231293052315935F
:1022600006230E2200210DF112008DF84540179330
:1022700006F0F7F84FF47020144B08AACDE90203DA
:102280000B238DF810300C238DF81130104B1148B2
:10229000059320230693104B02A9009310AB8DF8F1
:1022A0001D4002F093FF044618B17C210B4805F055
:1022B00064FD00214FF4E13005F03CFD20461DB0E7
:1022C00030BD00BFA88900080000015B3C00015B35
:1022D000E53F0020CC2300206823002076890008F9
:1022E000014805F0B0BE00BFCC23002008B5012294
:1022F000074B1A700022074B1A700422064B1A7003
:102300001F22064B1A7002F055FF054B186008BDDE
:10231000A210002005400020A1100020A0100020E5
:10232000E42300200122024BC3F8A020704700BF25
:1023300000D003500122024BC3F8A020704700BF19
:1023400000E0035070B588B03F4D01AC0FCD0FC415
:1023500095E8070084E80700012401213A2001F0F4
:102360002FF83A4E0121292001F02AF8384B304647
:1023700001A903938DF8124002F04EFD234604227A
:102380000321022002F024F90221224608460023FC
:1023900002F01EF9234621460422022002F018F919
:1023A000042200212346022002F012F9294D2A4B73
:1023B0004FF44870C5F834374FF00213C5F8303782
:1023C00003F58033C5F838371C23C5F8203703F0F0
:1023D0007BFD1420FFF7AEFF03F076FD2320FFF70F
:1023E000A1FF03F071FDB9213046FFF7A3FF05F00F
:1023F00072FDFFF797FF002303211A46022002F027
:10240000E7F8002302211A46084602F0E1F82346C5
:1024100021460022022002F0DBF80022234611466A
:10242000022002F0D5F8304602F0CAFC0021292033
:10243000C5F83417C5F83017C5F83817C5F8201790
:1024400000F0BEFF08B070BDC889000800C005508C
:1024500000127A0000C00350020001000348044A41
:102460000449121A921005F075BC00BFF4900008E0
:10247000F49000081440002008B500F02FF8FFF792
:10248000EDFF124B12498B4212D30020114B12491F
:102490008B4218D3FFF794FD186850F82240586813
:1024A00040F82240013298688242F5D30C33EAE7C3
:1024B0000022F8E71C6844F8220001325C68A2425E
:1024C000F8D30833E4E70022F8E700BF38900008AB
:1024D00044900008449000084490000810B54FF460
:1024E00080414FF0FF30114B114A9A60D3F8882099
:1024F00042F47002C3F888200E4A91660E4901F535
:10250000005210660D4850660220C3F8D000BFF399
:102510004F8FBFF36F8F01244FF440330848C0F84A
:102520008041D36004600B6110BD00BF00ED00E08E
:10253000000000080090005000800044F7FF3700C2
:1025400000E100E0014B1868704700BF3010002028
:10255000084B1B6F03F00703022B04D0032B05D09D
:10256000012B05D0FEE7044B18687047034BFBE7CF
:1025700003487047008000503010002038100020C1
:10258000002D310108B5FFF7E3FF054B1B6FC3F3C7
:1025900003330133B0FBF3F0024B186008BD00BFFA
:1025A000008000502C1000200048704700B4C40484
:1025B000014B1868704700BF38100020054B1860A9
:1025C000054B1B6F03F00703032B01D1FFF7DABFA5
:1025D000704700BF3810002000800050004870474E
:1025E000002D31014FF0B4439868C0F304400C282B
:1025F0000AD8DFE800F00B090909090907211909C0
:102600001B1D1F000F487047002070479B6803F098
:102610004073B3F1807F11D0B3F1007F10D00A4A2C
:10262000002B08BF1046704708487047084870479D
:10263000084870470848704708487047084870477E
:1026400008487047405DC60000093D00C0EA21010E
:1026500080BA8C010048E801005A62020024F400AC
:1026600080841E0040420F00014B1868704700BF75
:10267000341000200346054A0549106803448B4284
:102680008CBF4FF0FF301360704700BF3C1000203C
:102690000000042008B501213A2000F091FE01233A
:1026A00004220321002001F093FF002005F012FC1A
:1026B0000122354B3549C3F844244FF40022A3F5D9
:1026C00050335A66324BD3F8FC20D20146D4D1F8AD
:1026D000803023F0030343F00203C1F880304FF44D
:1026E000607000F095FE2A4B00F5D520D3F8F0205D
:1026F00000F2FC4042F00102C3F8F020D3F8FC20C5
:1027000042F08072C3F8FC20224AA3F55D431A60B0
:10271000214B0222B0FBF3F0204B01381861C3F8C3
:10272000F0204FF48072C3F804234FF060431C4A3A
:102730000020C3F8B02F1B4AC3F8802ED3F8002E18
:1027400042F48072C3F8002EFF2283F82020D3F8D1
:10275000002E22F48072C3F8002E08BDD3F8FC20AE
:1027600022F08072C3F8FC20D1F8802022F003020E
:1027700042F00202C1F88020D3F8FC2042F08072BF
:10278000C3F8FC20ABE700BF00D00350008000502E
:1027900000ED00E0FF030040F8590D00000004E0E8
:1027A00055CEACC50900010030B54FF06043D3F8F9
:1027B000802ED20715D501240B4D8440D5F8FC207E
:1027C00042F08072C5F8FC20D3F8002E2243C3F8F3
:1027D000002E53F82020002AF0D003F8201000200B
:1027E00030BD1120FCE700BF00ED00E02DE9FF4700
:1027F000044618B939214D4805F0BFFA2368B3F1F2
:10280000B64F09D04A4A93427BD04F21474804B083
:10281000BDE8F04705F0B1BA2E20012100F0D0FD4F
:1028200001230A226179207901F0D2FE01230A22D4
:10283000E179A07901F0CCFE0A27DFF80081DFF80A
:1028400000913C4D267994F805A0032E05D839F85F
:10285000163023FA0AF3DA0704D440F2FE31404678
:1028600005F08BFA3022012302FB065603FA0AF325
:1028700006F501563360642003F026FB267994F8B0
:1028800005A0032E06D82C4B33F8163023FA0AF392
:10289000DB0704D440F22D41404605F06EFA3022A9
:1028A000012302FB065603FA0AF306F5825664205A
:1028B000336003F009FB013FC4D12068B0F1B64F8B
:1028C00021D10323C5F8E8346279237943EA02432E
:1028D000C5F8EC34E279A37943EA0243C5F8F03451
:1028E00040F20113ADF80030E36869460293A36833
:1028F0000193237C8DF80C3001F054FF04B0BDE847
:10290000F0872F2089E70A4B9842E9D10323C5F8C5
:10291000F8346279237943EA0243C5F8FC34E2795A
:10292000A37943EA0243C5F80035D9E7E4890008F2
:102930000080065000C00350868A00083A8A0008CA
:10294000868A000838B5054602F070F8044C012864
:1029500001D1013C00D138BD284601F055FFF6E712
:10296000E19304002DE9F04F85B09A46554B064699
:102970001B780F461546DDF83C909DF844B0DDF815
:102980005080002B00F09780072A00F296800E9B63
:10299000002B00F09280B9F1000F00F08E80129BA6
:1029A000B3F5006F00F38980012803D1109B002B41
:1029B00000F08380444B03EB05131B7B002B7ED080
:1029C000424C10220021684605F04BFD04EB4514F3
:1029D0001022A7BB3946204605F043FD43F2100301
:1029E0006380BBF1000F03D1E37843F00303E3708E
:1029F000364A0E9B02EB451CCCE90193129B690100
:102A0000581E9DF84C30C0F30A0003F003039B06E8
:102A100043EA001E53582E48012E00EA03004EEAF6
:102A20000003CDF800A0535017D0B8F1000F2ED1FD
:102A30009CF8023068F304138CF8023027E0002180
:102A4000204605F00EFD4FF444736380BBF1000F88
:102A5000CED1E37843F03003C9E713230CF1100E15
:102A6000CCF80C309CE80F008EE80F006FF00301EB
:102A7000DCF81C20109B61F39F02012FCCF81C2076
:102A8000CCF8143003D1CCF81890CCF804300027DF
:102A90000D4A290102EB051342F80180159A2846D8
:102AA0005A60694622469F605E7302F0A5F8384678
:102AB00005B0BDE8F08F0748FAE70748F8E7074890
:102AC000F6E700BF06400020E8240020E8230020AD
:102AD0000F80FFF3028000F0018000F0078000F01B
:102AE00038B5124B05461B78DBB1E0B105F0B5F9FE
:102AF0000F4A00231146147B54B92B6001251A019B
:102B000001EB03131D738C5005F0ADF9204638BD61
:102B10000133082B02F11002EDD105F0A4F90548AC
:102B2000F5E70548F3E70548F1E700BF0640002058
:102B3000E8240020048000F0028000F0018000F012
:102B400038B505F08AF9002305460B4A147B6CB9A9
:102B50000133082B02F11002F8D101F0C5FF074B39
:102B600028461C7005F07FF9204603E0284605F052
:102B70007AF9034838BD00BFE82400200640002051
:102B8000058000F010B50D4B04461B7893B1072863
:102B900012D805F062F90A4B03EB04131A7B2AB131
:102BA00000241C7305F05FF9204610BD05F05BF9A9
:102BB0000448FAE70448F8E70448F6E7064000202E
:102BC000E8240020068000F0028000F0018000F080
:102BD00013B5154B1868002301908DF8043005F0EB
:102BE0003CF9124B1C7824B105F03DF9104802B0B5
:102BF00010BD01221A7005F036F90E4B01A81C73A6
:102C00001C7783F82C4083F83C4083F84C4083F8D1
:102C10005C4083F86C4083F87C4008238DF80730D3
:102C200001F0A0FF2046E2E78E8A0008064000205F
:102C3000038000F0E824002008B50A4A12785AB14F
:102C400007280BD8084A02EB00131B7B43B1002175
:102C500001F068FF002008BD0448FCE70448FAE7DB
:102C60000448F8E706400020E8240020028000F035
:102C7000018000F0078000F008B50A4A12785AB1C6
:102C800007280BD8084A02EB00131B7B43B1012134
:102C900001F048FF002008BD0448FCE70448FAE7BB
:102CA0000448F8E706400020E8240020028000F0F5
:102CB000018000F0078000F008B50A4A127852B18E
:102CC00007280AD8084A02EB00131B7B3BB102F02D
:102CD00015F8002008BD0548FCE70548FAE7054857
:102CE000F8E700BF06400020E8240020028000F042
:102CF000018000F0078000F00D4B1B7893B107288E
:102D000012D889B10B4B03EB00131B7B73B10A4B39
:102D10001A6D01238340134214BF012300230020B6
:102D20000B70704705487047054870470548704765
:102D300006400020E824002000000450028000F03B
:102D4000018000F0078000F010B50B4A0C461278A5
:102D500062B107280CD859B1084A02EB00131B7B5B
:102D600043B101F0E7FF2070002010BD0448FCE7EC
:102D70000448FAE70448F8E706400020E824002069
:102D8000028000F0018000F0078000F02DE9F041A2
:102D9000174B1F6D5B6D1F4000D5FEE70126002518
:102DA000144CDFF85880374218D02368C8F85060B8
:102DB000A3B1A168284601316268A1609847637B8E
:102DC000012B0BD150B90C4B03EB45131A7B60F36D
:102DD00041021A731A7F60F341021A770135082DF8
:102DE0004FEA460604F11004DDD1BDE8F08100BFD2
:102DF00000000450E8240020E823002000200450B4
:102E0000044BD3F88420D206FBD4D3F88400C0F35B
:102E1000811070470040005038B5124B0546D3F87A
:102E200080300C4603F00303022B0BD0032B0DD094
:102E3000012B0FD1FFF78CFB0E2305B1286004B1E5
:102E4000236038BDFFF7CEFB0723F6E7FFF77AFBD9
:102E50000623F2E7044841F2DF1104F08EFF00235D
:102E60001846EAE700800050928A000838B51A4BED
:102E70000546D3F820010C4600F00700062821D8AB
:102E8000DFE800F028040C1410181C00FFF75AFBB0
:102E9000052305B1286004B1236038BDFFF788FB26
:102EA0000323F6E7FFF79EFB0723F2E7FFF796FB06
:102EB0000223EEE7FFF746FB0623EAE7FFF778FB7E
:102EC0000423E6E7054841F25C2104F056FF0023A5
:102ED0001846DEE70123DCE700800050928A0008F4
:102EE00038B5194B0546D3F828310C4603F00703D3
:102EF000013B052B20D8DFE803F003131B0F0B1752
:102F0000FFF720FB052305B1286004B1236038BD1D
:102F1000FFF718FB0623F6E7FFF764FB0723F2E74A
:102F2000FFF746FB0323EEE7FFF742FB0423EAE744
:102F3000FFF754FB0223E6E7044841F2640104F082
:102F40001CFF00231846DEE700800050928A00082C
:102F5000F7B50027144B0197D3F88041064604F0DB
:102F60000304022C0D4614D0032C0DD0012C14D1D7
:102F7000394601A8FFF77AFF10240EB1019B336098
:102F800005B12C6003B0F0BDFFF72CFB07240190C6
:102F9000F3E7FFF723FB0190EFE741F2B13103487C
:102FA00004F0EBFE3C46E8E700800050928A0008FF
:102FB00037B500230193194B0546D3F820320C4650
:102FC00003F00703042B1FD8DFE803F025030F14D9
:102FD0001900002101A8FFF783FF12230DB1019A08
:102FE0002A6004B1236003B030BDFFF7FBFA07236A
:102FF0000190F3E704F0BBFE0A230190EEE7FFF730
:1030000033FB09230190E9E741F22301044804F06E
:10301000B4FE0023E2E70123E0E700BF0080005098
:10302000928A000838B5104B0546D3F840310C465B
:1030300003F00303022B0BD0032B0DD0012B0FD178
:1030400004F095FE0A2305B1286004B1236038BD61
:10305000FFF70AFB0923F6E704F08CFE0C23F2E7E6
:1030600001230020EFE700BF0080005037B50023A8
:103070000193184B0546D3F860320C4603F0070362
:10308000013B032B1FD8DFE803F0020E19140021C7
:1030900001A8FFF7EBFE10230DB1019A2A6004B1DD
:1030A000236003B030BD002101A8FFF7BBFF11234F
:1030B000F2E7FFF797FA07230190EDE7FFF78EFAA3
:1030C00002230190E8E741F2C801034804F055FEED
:1030D0000023E1E700800050928A000837B5002302
:1030E0000193184B0546D3F894320C4603F00703BE
:1030F000013B032B1FD8DFE803F0020E1914002157
:1031000001A8FFF7B3FE10230DB1019A2A6004B1A4
:10311000236003B030BD002101A8FFF783FF112316
:10312000F2E7FFF75FFA07230190EDE7FFF756FAA2
:1031300002230190E8E741F2FB01034804F01DFE81
:103140000023E1E700800050928A000873B5002454
:103150000F4B0194D3F87032064603F00303012BA2
:103160000D4607D0022B11D041F22611094804F078
:1031700004FE04E0214601A8FFF754FF11240EB11C
:10318000019B336005B12C6002B070BD1524F6E7D9
:1031900000800050928A000838B5164B0546D3F8D7
:1031A00000020C4600F00700042819D8DFE800F000
:1031B00020030B0F130004F0DAFD0A2305B1286089
:1031C00004B1236038BDFFF74FFA0923F6E704F096
:1031D000D1FD0C23F2E7FFF7D5F90F23800AEDE7C5
:1031E000054841F26F4104F0C8FD00231846E5E7A9
:1031F0000123E3E700800050928A000838B5164B9F
:103200000546D3F808020C4600F00700042819D838
:10321000DFE800F020030B0F130004F0A8FD0A23E1
:1032200005B1286004B1236038BDFFF71DFA0923FA
:10323000F6E704F09FFD0C23F2E7FFF7A3F90F2355
:10324000800AEDE7054841F2A74104F096FD00230E
:103250001846E5E70123E3E700800050928A000862
:1032600038B5104B0546D3F840320C4603F0030343
:10327000022B0BD0032B0DD0012B0FD104F077FDC7
:103280000A2305B1286004B1236038BDFFF7ECF9CB
:103290000923F6E704F06EFD0C23F2E7012300207A
:1032A000EFE700BF0080005038B5104B0546D3F85B
:1032B00060310C4603F00303022B0BD0032B0DD01F
:1032C000012B0FD104F053FD0A2305B1286004B18E
:1032D000236038BDFFF7C8F90923F6E704F04AFD7B
:1032E0000C23F2E701230020EFE700BF008000502D
:1032F00010B5B0F5207F2ED009D8B0F5007F24D0CE
:1033000003D868B1B0F5C07F0AD000241BE0B0F547
:10331000607FFAD1124BD3F88040C4F3011412E05D
:103320000F4B1C6F230B13F00E0FC4F303340AD0A2
:10333000072C08D00F2C06D0032C04D040F2852196
:10334000084804F01AFD601C10BD054BD3F89040EE
:10335000C4F30464F7E7024B1C6FC4F38024F2E764
:1033600000800050928A000838B54FF48032104B2C
:1033700004469A6600200D46FFF7BAFF41F6713207
:103380000C4B6043DC69DA635A6804F4803422F43D
:1033900040125DB90849884294BF00200120000511
:1033A00002435A600CB10022DA6338BD0349F2E7E8
:1033B0000090005000000350005A6202002D3101BD
:1033C00038B5430904460D460ED140F22F310D4861
:1033D00004F0D3FC002304F01F0485B103F58053EF
:1033E0000122A2401A6038BD012B04D0022B04D068
:1033F00040F23D31EBE7044BEDE7044BEBE703F51F
:103400000053EDE7928A0008648000506880005005
:1034100030B585B0002180280446CDE9001100F0C8
:103420009F8035D85E2846D85E2844D8DFE800F073
:103430009E43434343434343434343434343434301
:10344000434343434343434343434343434343434C
:103450009EAB9EABBBBBBBBBBBABC550DB7450AB29
:10346000ABAB4343434343434343ABABAB7CE5ABE1
:1034700043434343434343434343434343BB9E9EEE
:103480009EE05050EA8B61C04343434343939E0008
:10349000B0F5B06F00F0918030D8B0F5207F72D0D9
:1034A0000FD8B0F5C07F61D0B0F5007F61D0B0F526
:1034B000807F00F0878040F29441554804F05DFC25
:1034C00051E0B0F5607F69D00DD8B0F5407FF2D102
:1034D000FFF758F804464FF42070FFF709FFB4FBDC
:1034E000F0F4640858E0B0F5806F5CD0B0F5A06FE0
:1034F000E1D100216846FFF75BFD34E0B0F5106FC5
:1035000076D016D8B0F5E06F77D00AD8B0F5C06F96
:1035100069D0B0F5D06FCED100216846FFF73CFEF0
:1035200021E0B0F5F06FC6D100216846FFF7BCFE80
:1035300019E0B0F5406F3BD00AD8B0F5206F61D0EC
:10354000B0F5286FB7D100216846FFF7FFFD0AE00C
:10355000B0F5486FAFD100216846FFF7BFFD02E02C
:10356000FEF7F6FF0090009805B030BDFFF70AF8AF
:10357000F8E7FEF7EDFF05462046FFF7B9FEB5FB7D
:10358000F0F50095EFE7FEF7FDFF04464FF42070DD
:10359000FFF7AEFEB4FBF0F40094E4E701A8FFF7F8
:1035A0003BFC019DE8E700216846FFF75FFCDAE796
:1035B00000216846FFF794FCD5E700216846FFF735
:1035C000C7FCD0E74FF0E02302911B695B0705D5EC
:1035D000FEF7D8FF0290029B0093C4E703A902A85C
:1035E000FFF720FDF7E700216846FFF71BFDBAE76C
:1035F00000216846FFF702FEB5E700216846FFF7A5
:103600002FFEB0E700216846FFF730FDABE700BFB3
:10361000928A000808B58020FFF7FAFE034B984213
:103620009EBF4FF48032024B1A6708BD005A6202F7
:1036300000A000501FB503460020B3F5807F019025
:1036400000F0C28063D85D2B54D84C2B06D82D2BAC
:1036500046D8232B2AD840F27951A4E04D3B102BB9
:10366000F9D801A252F823F0BF37000857360008F6
:1036700057360008573600087137000857360008DB
:1036800057360008433800088F37000835370008E0
:1036900039380008573600085736000857360008F2
:1036A00057360008573600084D380008243B092BD0
:1036B000D1D801A252F823F0BF370008BF37000865
:1036C000BF370008BF370008BF370008573600086B
:1036D000AF3700085736000851370008F5370008A3
:1036E0003D2B00F082803E2BB5D1002001A9FFF7D1
:1036F000B7FD60E0802BAED1574B1B6F03F0070383
:10370000013B032B4DD8DFE803F04A47878FB3F521
:10371000F06F6AD021D8B3F5B06F48D00FD8B3F5A9
:10372000607F00F0858096D3B3F5806F47D0B3F506
:10373000A06F90D1002001A9FFF73AFC3BE0B3F560
:10374000D06F57D0B3F5E06FCFD0B3F5C06F82D153
:10375000002001A9FFF766FC2DE0B3F5206F70D0C3
:103760000BD8B3F5086F4AD0B3F5106F7FF473AF81
:10377000002001A9FFF742FD1DE0B3F5406F5BD0CB
:10378000B3F5486F62D0B3F5286F7FF464AF0020C3
:1037900001A9FFF7DBFC0EE0052301930BE00223F8
:1037A000FBE740F2C6412D4804F0E7FA03E00020B1
:1037B00001A9FFF7CDFB019805B05DF804FB0020DF
:1037C00001A9FFF753FBF6E74FF0E02302901B69D6
:1037D0005B0705D5FEF7D6FE0D230393039BDCE7BD
:1037E00003A902A8FFF71EFCF8E7002001A9FFF7D4
:1037F0005BFDE0E7002001A9FFF7CEFCDBE7164BFD
:10380000D3F8003103F00303022B07D0032B09D0B8
:10381000012B0BD1FEF7CCFE0323BEE7FEF724FFFE
:103820000923BAE704F0A1FA0823B6E70123B4E7B5
:1038300001A9FFF7F1FABEE7002001A9FFF750FB4D
:10384000B9E7002001A9FFF711FCB4E7002001A9A6
:10385000FFF744FCAFE700BF00800050928A0008E9
:103860004FF48012034B5A664FF48032024B9A6237
:10387000704700BF009000500050005A38B50368F0
:1038800004460F2B04D940F66D317C4804F075FADC
:1038900063680F2B04D94FF43761784804F06DFA50
:1038A000A3680F2B04D940F67331744804F065FA0D
:1038B000237B0F2B04D940F67631704804F05DFA73
:1038C000637B0F2B04D940F679316C4804F055FA2C
:1038D000A37B3F2B04D940F67C31684804F04DFAB5
:1038E000E37B3F2B04D940F67F31644804F045FA6E
:1038F0002369032B04D940F68231604804F03DFA75
:103900006369032B04D940F685315C4804F035FA2D
:10391000E369032B04D940F68831584804F02DFAA6
:103920008020FFF787FE032800F083804FF4801289
:10393000534B4FF0A0615A6645F60E02514BC3F847
:103940008020514A91624FF4803102F58052916299
:103950009A6DD203FCD4996D11F08041FBD1D4E96A
:103960000002120542EA0062E07B0243207B42EA49
:103970000042607B42EA0032A07B42EA80121A6178
:103980009869D4E90452120642EA856200F00040C8
:103990000243A07EE57E0243207E42EA0042607E32
:1039A00042EA00229A611A6AE06922F00F0242EAB2
:1039B0008502364D00283DD11A6294F82420996A78
:1039C00094F82000D200294042EA40120A4394F8B9
:1039D000211042EA011242F480329A622C49294AAB
:1039E000936D31EA0303FBD14FF080712648816269
:1039F0001369A56823F4700343EA055313614FF07C
:103A00000043836194F822300BB9224B996294F8F9
:103A100023303BB94FF480321E4B9A62194A936DA2
:103A20005B00FCD494F825301BB1164B1A4AC3F83E
:103A3000802038BD024342F0080202281A6208D1F1
:103A400019614FF40852996114484FF47F4104F012
:103A5000C6F90C4994F822308A6A94F820001B06B3
:103A60002A4043EA4013134394F8242043EAC20354
:103A700094F8232043EA02438B62D3E7928A00083A
:103A8000009000500040005A0050005AC7FFFEFE50
:103A9000030001000060005AF1A7FFFF3440005A04
:103AA000014B93F900007047A310002010B5436844
:103AB0000446072B04D940F6B3512A4804F05DF9B7
:103AC000A368032B04D940F6B551264804F055F9F4
:103AD0002378032B04D940F6B751224804F04DF95E
:103AE00094F90130002B04DA40F6B9511D4804F076
:103AF00044F94FF400011C4A637851664FF4D151E8
:103B0000022002F5B832516218494F2B48604FF03D
:103B1000010028BF4F2301F5805148601169C90396
:103B2000FCD4217843EA01235361D4E901131B013A
:103B300043EA0123617B0B43217B43EA410393600A
:103B4000E37BA17B1B0143EA4113617C0B43217C96
:103B500043EA41035360A37C13B16FF4D153536222
:103B600010BD00BF928A0008009000500010025063
:103B7000014B1880704700BF9E100020014B188039
:103B8000704700BF9C10002038B5B0F5207F77D07B
:103B90000ED8B0F5007F61D003D890B3B0F5C07FE8
:103BA0002FD040F21231BDE838403D4804F0E5B86E
:103BB000B0F5607FF5D13B4A4C1ED2F8FC5015F0B1
:103BC00080751EBFD2F8FC3023F08073C2F8FC3041
:103BD000032C04D940F2F221314804F0CEF8324AE5
:103BE000D2F8803023F0300343EA0413C2F8803067
:103BF00035B12C4AD2F8FC3043F08073C2F8FC3067
:103C000038BD4C1E012C0AD9102903D8274BCB40B4
:103C1000DB0704D440F2C721214804F0AEF804F0D9
:103C2000EDF804F0F9F84FF48031214B1E4A196782
:103C3000136F23F4704343EA04331367FEF7A2FCC7
:103C40000446FFF7DDF8C0F10201204604F0DEF87B
:103C500000F040F8BDE83840FFF7DCBC4C1E1F2CDC
:103C600004D940F206310E4804F087F80E4AD2F823
:103C7000903023F0F85343EA0463C2F89030BFE772
:103C80004C1E012C04D94FF44371054804F075F81B
:103C9000054A136F23F4806343EA84231367AFE775
:103CA000928A000800ED00E0008000501001010041
:103CB0000090005008B50121022000F02FF804F018
:103CC0009DF804F0A9F84FF48032014B1A6708BD43
:103CD0000090005008B54FF4C070FFF799FBBDE8A5
:103CE00008400449884294BF012102214FF420700A
:103CF000FFF74ABF80F0FA02024A536B0342FCD13D
:103D0000704700BF00400950034A0179D36E23F089
:103D100030030B43D366704700400050F8B50446AB
:103D2000244BD3F88420D006FBD4D3F88430C3F3DB
:103D300081139C423CD0FEF70BFC012C05460BD1B5
:103D40001D4B984204D940F292711C4804F015F8BA
:103D50000121284604F05AF804F078F84FF0007278
:103D6000174B07465A66204604F080F84FF48063EC
:103D7000104E621E93403367736E9A0103D4D6F8D7
:103D800084309B060AD5384604F064F8022C0FD123
:103D90002846BDE8F840002104F038B8D6F8843051
:103DA0009906E9D54FF4F461044803F0E6FFE3E730
:103DB000F8BD00BF00400050005A6202DD8A0008D2
:103DC0000060005010B50C4608B9FEF7C1FB074B68
:103DD00021461B783BB1064B984204D80120BDE830
:103DE0001040FFF79BBF0220F9E700BF074000200B
:103DF000005A620238B54FF00042244B244C5A66F8
:103E00004AF6CD33656C014605F00105236428BBF5
:103E10000120FFF771FF6368DB0715D51D4B586064
:103E200008461D4B226BD2070CD4984208D10724B8
:103E300015B1174B194A1A6404F019F8204638BD19
:103E40000130EFE79842F2D00024F1E70132236B12
:103E500013F0080305D08A42F8D1E8E700220E49A2
:103E6000F5E78A42E3D020210A4A91620121A2F5B6
:103E7000805251600649084A886A800603D49342FA
:103E8000D5D00133F8E79342DDE700BF0090005042
:103E9000004009500060095040420F003254FFFFBB
:103EA00038B54FF00042164B01465A664AF6CD33FC
:103EB000144C154A656C236443780B205B0043F077
:103EC0000103D363FFF718FF63688A7823F4F8735C
:103ED00043EA02136360CA784B7943EA0223A36082
:103EE0000A798B7943EA022323610878FFF782FF7E
:103EF000EB0744BF054B236403F0B9FF012038BD35
:103F00000090005000400950004000503254FFFF24
:103F100070B50F28044605D940F62D61124803F00C
:103F20002CFF0F244FF00042104B11495D6E03F53A
:103F300080535A664AF6CD334E6C80200B64FFF7EF
:103F4000DBFE0B6A23F00F0323430B62F30744BF2E
:103F5000084B0B64002DA2BF4FF00042064B5A667F
:103F600003F085FF70BD00BFDD8A000800800050AF
:103F7000004009503254FFFF00A0005010B503F07C
:103F80007BFF042300F5805100F500520B611361A3
:103F90000B6113610B6113610B611361202341F20B
:103FA000020103610023C360836041614FF4A021DB
:103FB0008361836541620549C36103628362C362B1
:103FC00043630365D164036310BD00BFFF3F0D036E
:103FD00038B5174B044698420D4607D0154B98420A
:103FE00004D04FF4B371144803F0C7FE25B920463E
:103FF000BDE8384003F040BF012204F580535A6009
:1040000040F6FF71204605F00F0203F031FFA26376
:10401000782103F02DFF05F001036A0748BF43F044
:104020000203A26C02F003029A42FAD138BD00BF2B
:104030000000015B00000A50288B0008F8B5054617
:104040000C46164622B94FF409716B4803F095FEF1
:104050006A4B9D4202D19CB956240DE0684B9D42AB
:1040600047D040F22721644803F087FE44B940F26C
:104070007631614803F081FE2046FFF7C9F9044616
:10408000AB68D80745D5B44204D240F231215A4832
:1040900003F073FEB4FBF6F46F68013CFF2C07F0ED
:1040A000010704D940F23921534803F066FE240683
:1040B0004FB32821284603F0DBFEAB6C99071CD1D7
:1040C000AB6CDA071BD4AE6C16F0020619D140F2C5
:1040D0004621494803F051FE284603F0CDFE2B69E6
:1040E000314623F07F4323432B61BDE8F840FFF7BF
:1040F0006FBF002CC4D15724BEE70526ECE7092684
:10410000EAE70626E8E72B6923F07F4323432B6188
:10411000F8BD6B68012B04D040F25921364803F0FA
:104120002CFEAB6DDB07AB6848BF760003F0E00305
:10413000402B42D009D893B1202B1AD040F29B21BA
:10414000BDE8F8402C4803F018BE602B42D0802B0D
:10415000F4D106EB4603A34247D801230DE0B6EBAA
:10416000141F04D940F28121234803F006FE1023D6
:1041700003E0B6EBD40F1AD8082373436401B4FBF1
:10418000F3F4204F203CB7EBC40F4FEAC40604D22F
:1041900040F2A621184803F0F0FD28463E400121D8
:1041A00003F066FE2E63BDE8F84003F061BE40F206
:1041B0008621114803F0E1FDDEE70623B4FBF3F3AB
:1041C000B34201D30623D8E740F28B210A4803F01B
:1041D000D4FDF7E7B6EB940F01D80423CDE74FF4F5
:1041E0002471054803F0C9FDF7E740F29521024824
:1041F00003F0C3FDB1E700BF288B00080000015B9E
:1042000000000A50F8FF7F002DE9F041984643680E
:1042100004460E4617461BB140F6FF7103F028FE18
:104220002046FFF7ABFEF189737B62690B43318A4D
:1042300022F44C520B4322F00F0213436361A16836
:10424000337E327B21F0804121F0E2011A430A43A0
:1042500071690A43A260B2681AB9A26842F00042CA
:10426000A260F069002874D0857A027A6D04A16892
:1042700045EA82556C4A0A401543828802F4C042DE
:104280001543427845EA8205427B45EAC205827BB6
:1042900045EA0215827845EA8225A560D0E9042125
:1042A000E5680A43614929400A43817942EA81224B
:1042B000C17942EA4122E26002785D49012A14D1C3
:1042C000E26842F00402E2608C4200F09180594AB8
:1042D00094420CBF01224FF0FF32520102F1A04282
:1042E00042F2944102F5703214E0032A7AD1E26876
:1042F00042F00402E2608C4278D04E4A94420CBFF5
:1043000001224FF0FF3241F29441520102F1A042EA
:1043100002F5703202255550427A04F580518A62C6
:104320001AB1E26842F40062E260C27A5AB1E2680D
:1043300042F40042E2603E4A94425BD1027B3E4935
:1043400002F00F024A67626AC17B22F003020A434D
:1043500062623FB197F8202004F58050002A53D0C4
:1043600001220262B8F1000F27D004F5805113B189
:104370004FF400438B652E4BB8F822009C4298F80E
:1043800021304ED02B4A94420DD10122112B34BF43
:1043900001270227294DB0F5006FAF5494BF0127C4
:1043A0000227274DAF54A26D034322F4F95222F0A5
:1043B0001E021343A36501238B6505212046FFF7E9
:1043C00007FEB2681AB120467168FFF737FE204633
:1043D0003178FFF7FDFDA36CDB4313F4405FFAD1A6
:1043E000BDE8F081023A012A85D96DE700228AE70B
:1043F000002272E70F4A944201BF027B0E4902F08D
:104400000F02C1F880209EE7E16997F8222097F813
:10441000215021F009012A430A4342F00102C261FE
:10442000A0E70022B2E700BFE39BBDFFFFF9F087E2
:104430000000015B00000A50009003500A40002079
:104440000840002070B5134B054698420C4606D034
:10445000114B984203D07021104803F08EFC1CB918
:1044600072210E4803F089FC237B802B03D1762137
:104470000A4803F082FC637B032B03D979210748A8
:1044800003F07BFC002321462846BDE870401A4615
:10449000FFF7BABE0000015B00000A50288B00083D
:1044A00070B52B4B054698420C4643D119B98C2167
:1044B000284803F062FC5620FFF7BCF80C2807D010
:1044C000A0F10903012B03D9A0F11103012B3AD864
:1044D000637B032B03D9AA211E4803F04EFC237BE8
:1044E000802B03D0AC211B4803F047FC6369B3F178
:1044F000804F03D0AE21174803F03FFC238A23F4FA
:1045000000539BB2B3F5805F03D0B021114803F094
:1045100034FCA368013BB3F5165F03D3B2210D4809
:1045200003F02BFC002321462846BDE870401A46C4
:10453000FFF76ABE8A21074803F01FFC1CB98C21D3
:10454000044803F01AFC9E21024803F016FCBFE762
:104550000000015B288B000838B5032804460D468F
:1045600005D8094B33F81030CB40DB0704D440F2B8
:104570002D41064803F001FC302301225C43044B2B
:10458000AA401A5138BD00BFC28B00083A8A000801
:1045900040D0035038B5032804460D4605D8094BD2
:1045A00033F81030CB40DB0704D440F2FE3106482C
:1045B00003F0E3FB302301225C43044BAA401A5171
:1045C00038BD00BFC28B00083A8A000840E00350A3
:1045D0002DE9F041032804460D461746984605D8B4
:1045E0001D4B33F81030CB40DB0704D44FF4B071CF
:1045F0001A4803F0C2FB37B129462046B8F1000F34
:1046000020D0FFF7A9FF0F21072D04EB440688BF38
:10461000A5F108034FEA0616114895BFAB009B00B1
:1046200004360C3607FA03F29940304403F043FC99
:104630007FB929462046B8F1000F06D0BDE8F04109
:10464000FFF78ABFFFF7A6FFDDE7BDE8F041FFF700
:10465000A1BFBDE8F08100BFC28B0008768B0008C7
:1046600030C00350F8B506460F461546002A6AD0FA
:1046700003F00304836823F44073836003F0E6FBD4
:10468000B26882EA042303F440735340B36003F03A
:10469000E1FB37B9B6F1B64F0DD12E20FEF7B8FECB
:1046A0000746B3689A0717D5012C1BD0022C27D0D8
:1046B00064B9264B17E0264B9E4201D12F20EDE72F
:1046C00040F22F11234803F058FBB3684FF4B27146
:1046D000204803F052FB08E0012C13D0022CE7D154
:1046E0001D4B00E01D4B9F42F0D91D4B1B5D6B43E2
:1046F0000AD140F27511BDE8F840164803F03DBB01
:10470000184BF0E7184BEEE7A3EBC504013C3C4423
:10471000B4FBF3F4013C0CD540F27B110D4803F0DF
:104720002CFB4FF4BE710B4803F027FBB368B46158
:10473000F8BDB4F5007FF4D2B3689B07F7D5002C21
:1047400008BF0124F3E740F21511D4E780841E006E
:1047500000800650CA8B0008002D3101404B4C00F0
:10476000158C0008809FD5004054890038B5B0F101
:10477000B64F04460D4607D0084B984204D040F28D
:104780009511074803F0F9FA043425B104F5805473
:104790000123236038BD04F50054F9E7008006507A
:1047A000CA8B000838B5B0F1B64F04460D4607D0A5
:1047B000124B984204D04FF4D571114803F0DDFA42
:1047C0000023104A236404F50053DA636A7804F185
:1047D00008037AB903F5805302221A602046D5E90E
:1047E00001122B7BFFF73EFF20462978BDE83840B9
:1047F000FFF7BCBF03F50053EEE700BF0080065093
:10480000CA8B0008FFFF1F0070B5B0F1B64F0AD089
:10481000824B98421DD0824840F2012103F0ADFA4C
:104820006FF0030070BD7F4B9968C26B12F4C06FCC
:1048300015D091050FD5FD225A7009221A70002259
:10484000026493F90110012900D15A7093F9010013
:10485000E8E7754BE8E75605EFD5FE22ECE71C7854
:10486000082C00F2D680DFE814F009001F00450094
:10487000530070007E009C00A700CB004C880A8883
:10488000E5060AD5120A02F0060242F0F002012102
:1048900019704263C1600120C4E702F0FE02A10763
:1048A00048BF42F00102F2E7160608D5802100F564
:1048B0000052D1634FF608721A80022318E05506A1
:1048C000E9D5402400F50052D4634A88D40604D5C3
:1048D00002221A700B784363DDE796076AD5072238
:1048E0001A701B7901EBC3031B89012BD3D1082359
:1048F000C360D0E71506D9D45406CCD5402400F5C2
:104900000052D4634A88920754D503221A708CE768
:104910004C880A88E60643BF120A02F0060242F0FB
:10492000F00202F0FE02650709D51C7942F001028F
:1049300001EBC4010989012904BF0821C1600421D8
:1049400019700123C3604263A5E71406AED4520672
:10495000A1D5402400F50052D4634A88560729D5D2
:1049600007221A7097E71A795D8801EBC20426893D
:10497000AE420FD800240132D2B21A715C804C884A
:104980006507C2D4E40702D4012A7FF64EAF08229D
:104990001A7092E76268691C5980525D4263062270
:1049A000DFE7160682D455067FF575AF402400F583
:1049B0000052D4630522A9E794067FF56CAF202648
:1049C0001A7900F5005401EBC2010A89456AE663D1
:1049D0005C88A24281BF4968661C5E800D5559887B
:1049E0008A42D4D90424012AC46004D0013A9142F5
:1049F00001D10822C2601A78092A3FF420AF4AE7A1
:104A0000D2057FF548AF4FF4807100F50052D163B5
:104A100013E74FF609321A8011E700BF00800650F5
:104A2000CA8B0008682500207425002038B5B0F135
:104A3000B64F04460D4607D121B940F26A312548E8
:104A400003F09BF9244B13E0244B98420DD040F225
:104A50006931204803F091F925B940F26A311D48C7
:104A600003F08BF96FF0030038BD00292AD01C4BEE
:104A70002269D00744BF2022E2606A88910702D5EC
:104A800029890029EED0520702D52A8A002AE9D0C6
:104A90004FF480721A6000229D601A71C023E36097
:104AA0006369DB0514D4202204F50053DA630D4A50
:104AB0002046DA63236C43F4FC632364BDE838408A
:104AC000FFF7A2BE40F26A31024803F056F9CEE782
:104AD000636AE5E7CA8B000868250020008006505D
:104AE00074250020FFFF1F0010B54FF400120B4B80
:104AF000C3F88020BFF34F8FBFF36F8F0024FF22D6
:104B0000074B21465C6520209A625C60FEF758FCEA
:104B10002146BDE810402120FEF752BC00E100E034
:104B20000000045038B5072804460D4603DD772100
:104B3000084803F022F91F2C03D99121064803F0FD
:104B40001CF9064A064B002D08BF13460122A2405D
:104B50001A6038BD198C0008658C0008401004509C
:104B60004020045010B5044618B991211F4803F0A5
:104B700004F923781B0613F0604F03D092211B48E1
:104B800003F0FBF8E3780F2B03D9A321174803F0B8
:104B9000F4F801212020FEF713FC01212120FEF76B
:104BA0000FFC0122124B5A60227812069A6061783B
:104BB000A27842EA01429A61FF229A6200229A6335
:104BC0001A644FF000425A654FF0FF324FF4001163
:104BD00003F500531A65074AC2F88011E3781B01F8
:104BE000DBB282F81533116010BD00BF198C0008CC
:104BF0000000045000E100E02DE9F0410126C3B2BD
:104C0000072805460C46904606FA03F603DDEC211C
:104C1000364803F0B2F81CB9ED21344803F0ADF882
:104C2000236823F47C1323F00F031BB1F0212F48DA
:104C300003F0A3F8A37A1B0413F47C0F04D040F212
:104C400009112A4803F099F8E37A1B0513F07E6FE7
:104C500004D040F20B11254803F08FF8237B5B054D
:104C600013F0FE5F04D040F20D11204803F085F8E8
:104C70001F4B204F1E65AB00226803F1A04303F5D4
:104C800088235A60302202FB0575637B2B66E37A2A
:104C9000A27A1B0543EA0243227B43EA4253EB65B7
:104CA00028F003032B6703F0D8F87B6D33437B6553
:104CB000237A13B13B6C33433B64637A13B1BB6B10
:104CC0003343BB632279A37943EA0243084A9361E1
:104CD0006179E37943EA014307498B61054B5663E8
:104CE0009E64BDE8F04103F0BEB800BF198C000817
:104CF00000200450000004500010045010B501249E
:104D0000C3B2072804FA03F404DD40F29711074800
:104D100003F033F803F0A1F8054B5A6D22EA0402C0
:104D20005A659C62BDE8104003F09DB8198C0008DC
:104D30000000045010B50124C3B2072804FA03F49C
:104D400004DD40F2B5110A4803F017F803F085F8C6
:104D5000084BDA6A224208D15B6B9C430CBF0124EA
:104D6000002403F080F8204610BD0024F9E700BFBE
:104D7000198C00080000045070B506460C46154614
:104D800022B940F28E210C4802F0F7FF24B94FF40B
:104D90002070FEF73DFB04466D00013CB4FBF5F4CA
:104DA000064B250213EA042304D040F2B321024843
:104DB00002F0E3FFF56170BDB08C0008070080FFD2
:104DC00010B5124B0446984204D040F242411048BC
:104DD00002F0D3FF012104F58053596040F6AA6325
:104DE00041F20502636100230A48A360E365E260C3
:104DF00004F500522361E361E36490640348A36512
:104E0000844204BF23656365516010BD00C0055036
:104E1000B08C0008FFFF010038B5294B04469842CA
:104E20000D4604D040F26931264802F0A6FF204624
:104E3000FFF7C6FF012204F580535A602B8AA2684F
:104E400043F001031343AA7B43EA8223A360A368D0
:104E50002A7D43EA4273A360AB7C5BB1184B9C4252
:104E600002BFEA7CA3F51033C3F8C821E36D43F019
:104E70008003E3652B7B2046D5E9011243F4805380
:104E8000E360FFF779FF6B7B0BB1102363616B7DF0
:104E90001BB1A36843F48033A360AB7D1BB1A3684F
:104EA00043F40043A360EB7D2A7E1B07120503F049
:104EB000E04302F4E0021343A3652B78636138BD3D
:104EC00000C00550B08C0008034B5A68D20702D5C9
:104ED000DA69002AF9D1704700800A50054B9A68B8
:104EE0009107FCD45A689207F9D4DA69002AF6D1FE
:104EF000704700BF00800A5008B5FFF7E5FF0222A7
:104F0000014B1A6108BD00BF00800A5008B5FFF7C9
:104F1000E5FF0122024B03F580514A601A6108BD8A
:104F200000800A5008B5044B5968012903D1FFF7E6
:104F3000E3FF024B596008BD00800A5000A00A50F0
:104F400010B5064CFFF7CAFF6368012B03D1FFF7CA
:104F5000E9FFFFF7C3FF0378E36010BD00800A504C
:104F6000A8B94A680B78B2B94A7843EA42038A681A
:104F700012B1127843EA82138A7843EA8203CA683C
:104F800012B1127843EA4223054A936470477F21A5
:104F9000044802F0F2BE127843EAC203E4E700BF1D
:104FA00000800A50FD8C000810B9044B596470470A
:104FB0004FF48971024802F0E0BE00BF00900A5031
:104FC000FD8C000810B9044B596470474FF4A77169
:104FD000024802F0D2BE00BF00A00A50FD8C0008BB
:104FE00010B9044B196470474FF4C571024802F0C0
:104FF000C4BE00BF00A00A50FD8C000808B510B95F
:10500000044B186C08BD044840F2C51102F0B5FE0F
:105010000020F7E700800A50FD8C000808B520B991
:1050200049B101290AD0002008BD4FF41D7105487F
:1050300002F0A3FEF7E7044BD86CF5E7024B186DBE
:10504000F2E700BFFD8C000800800A5018B939B1A2
:10505000012908D0704740F21231044802F08DBE99
:10506000034BDA647047024B1A657047FD8C0008E9
:1050700000800A5007B5094B18689A889B79009000
:105080006846ADF804208DF80630FEF709FF0C20C5
:10509000FEF73EFF002003B05DF804FB588D0008CA
:1050A00013B50024064A6846536F43F00103536763
:1050B00000948DF80440FEF727FE204602B010BD94
:1050C0000040005030B58BB06C46174D0FCD0FC46B
:1050D0000FCD0FC495E8030084E80300134BD3F809
:1050E0004C2112031CD5A3F5FE431C884FF6FF7319
:1050F0009C4208BF8C248DF81940FEF7D1FC204457
:1051000080F308008DF818000948FDF757FA684643
:10511000FEF7B4FB3220FEF731FD00200BB030BDAE
:10512000D3F85041E4B2E6E7608D00080080E00F5C
:10513000C017530230B587B0084D01AC0FCD0FC476
:105140002B6801A823603F238DF80530FEF7AEFCE5
:105150003220FEF70DFD002007B030BD888D00081D
:1051600010B56FF0040350210A480B4C13F0800F68
:1051700003F1010207D123444C2A83F8001313469C
:10518000F4D1002010BD03F00F03043B0344197653
:105190001346EBE700ED00E000E100E010B5044647
:1051A00002F054FE024B1C6002F054FE002010BDC1
:1051B0008025002010B502F049FE034B1C6802F068
:1051C00049FE204610BD00BF802500202DE9F04398
:1051D0008DB01C4606AB0646894618461746002188
:1051E0001822149D03F03DF9227903460AB18DF887
:1051F0001820FB6163794FF00108C3F10203DBB2B1
:10520000CDE90333764B30460293764B4A46019301
:10521000002329460093744B8DF81E8000F004FB98
:105220000646002840F0AF80A3684146EB63E3697F
:105230003A20EB64237E85F8483063696B64237CF5
:1052400085F84030636A6B6594F8203085F85030FB
:10525000E36AEB6594F8283085F858302368AB632F
:10526000FEF7AEF8434604226169207CFFF7B0F9EF
:1052700043460222E169207EFFF7AAF93E7085F8D5
:1052800060604146A068FEF79BF86379002B32D13D
:1052900041463620FEF794F8A368562B02D0B3F5AA
:1052A000A06F08D1514AD2F8203223F0070343F00F
:1052B0000303C2F8203239462068FFF7F1F81021C5
:1052C000E2684B4B676903EB4210C0F89414217CF1
:1052D000253241EA0741C0F8AC14217EE06903EBB6
:1052E000421341EA004159602379032B75D8DFE866
:1052F00003F041244E6E3D4AD2F8283123F00703D3
:1053000043F00103C2F82831A368562B02D0B3F54D
:10531000A06F07D1D2F8203223F0070343F0010336
:10532000C2F8203239462068FFF78CF895F86030D3
:1053300043F0040385F86030C1E7002795F860303A
:1053400043F0010385F8603002220023616A94F87B
:105350002000FFF73DF9616A94F82020E36842EAF3
:10536000014241F29C415B0103F1A04303F570331C
:105370005A5097B90422AB6B052103F5805320687E
:105380001A65FEF725FE30460DB0BDE8F08395F8AE
:10539000603043F0020385F8603000230422E16AA4
:1053A00094F82800FFF714F941F294420221E368CF
:1053B0005B0103F1A04303F57033995094F8282062
:1053C000E16A03F5A55342EA01421A60D2E795F873
:1053D0006030012743F00303B4E72326D3E700BF7F
:1053E0009B7F00080B8000083B8000080080005075
:1053F00000C0035010B50020144602F076FD0228CC
:1054000004D018B1C321024802F0B7FC204610BDF9
:105410009C8D0008034B02221868002380681946FF
:1054200001F05ABE4C10002038B53022037A0446F1
:10543000534303F1A04303F58023DD6ED0E903233A
:1054400013449D4201D8AA4204D94FF43E71054845
:1054500002F093FCD4E9030303449D4218BF28469D
:1054600038BD00BF068E000830B587B0144605462B
:105470001046FFF7D9FF6369024683423CBFD4E977
:1054800003315B181B1AABB112490494039100213C
:10549000CDE90131012300932846D4E9001302F03D
:1054A00084FC20B14FF434710B4802F066FC0020FC
:1054B00007B030BD0122627694F82D20002AF6D084
:1054C00084F835301321E369204698472046636A03
:1054D0009847ECE769540008068E00082DE9F0476C
:1054E00088B004460F461646984602F0B6FC814640
:1054F000002E00F0AD80237E03F0FF02002B00F0B1
:10550000E0802046FFF790FF63698246984206D10B
:10551000637E23B940F27F316B4802F02EFC65694F
:10552000AA459DBFD4E903329B185D1BAAEB050574
:10553000B54228BF354602F090FC94F82D308246E3
:10554000002B40F096802A463846616902F094FFAD
:1055500063692E462B4463612CE06069037803F095
:10556000FD01112940F08280216B884205D1A3F111
:1055700011014B424B4184F83430013E6369216B89
:1055800001328B4203F1010308BF2363636195423B
:10559000E3D1D4E90323216B1344994208BF22636A
:1055A000216B8A4201D88B4204D84FF46D71464872
:1055B00002F0E3FBD4E9032361691344994208BF75
:1055C000626161698A4201D88B4204D84FF47171DB
:1055D0003D4802F0D2FB0023207A6376FDF72CFBD6
:1055E00020B140F21131384802F0C7FB2046FFF7E6
:1055F0001BFF636983423FD10023E568237694F85B
:105600002D30656103B125632046636A98472F4BAF
:10561000049403930023029323692A4601930123F0
:10562000009363682168207A02F0BFFB20B140F24A
:105630002D31254802F0A1FB207AFDF71DFB20B19A
:1056400040F25131204802F098FB504602F00BFC2A
:105650004846C8F8006002F006FCD8F80030002B7D
:105660000CBF1B20002008B0BDE8F08707F8013B05
:1056700084E72E4600228AE70123207A23760DF163
:105680001E01FDF761FB20B14FF450710E4802F08E
:1056900074FB9DF81E30207A002BCDD00DF11F0138
:1056A000FDF72AFB20B140F24631074802F065FBC6
:1056B0009DF81F10207A0029BED12246FFF7D4FEA4
:1056C000BAE71646C4E700BF068E00086954000812
:1056D00070B504460568FFF76DFD844202D10020D5
:1056E000FFF75CFD95F93630002B11DB012203F04A
:1056F0001F015B099B0003F160438A4003F561438E
:10570000C3F88021C3F88020BFF34F8FBFF36F8FA2
:10571000287AFDF7D1FA20B14FF4ED71104802F06C
:105720002CFB287AFDF72EFA20B14FF4EF710C48CC
:1057300002F023FBFDF704FA38B10A4B984204D07B
:105740004FF4F171064802F018FB00232846C4E923
:105750000033C4E90433A360AB6ABDE87040184766
:10576000068E0008058000F02DE9F84304460D463A
:1057700090F82C80DFF8AC908E18AE4228D094F8C8
:105780002D3083B102F069FB237E07461BBB226BE1
:1057900063699A4204D040F2F911484602F0EDFAEA
:1057A000384602F060FB94F83430002BE5D0B8F1B5
:1057B000000F06D02B780A2B03D10D212046E36978
:1057C00098472046E36915F8011B98470028D4D074
:1057D0000020BDE8F8832046FFF726FEE168013887
:1057E000884238BF2069D4F830C03CBF00F1FF3098
:1057F000401803469C450BD013F80129112A01D00B
:10580000132A07D1A2F111035A425A4184F83420D5
:105810002063C5E7994282BF236903F1FF335B1818
:10582000E8E700BF068E0008F0B587B00C460646D4
:1058300015460021382220461F4602F012FE95E848
:10584000030000232A692376EB6884E80300C4E997
:1058500004232A7DE36084F82C20AA7D236301239E
:1058600084F8343084F835300C9B84F82D20236282
:105870000D9BE76163620E9BA3622B7A84F836303E
:10588000204B34607360204BB360204B3361204B5E
:105890007361204BF360FDF79BF930B11E4B9842CA
:1058A00003D01024204607B0F0BD002104F1080009
:1058B000FDF716F90028F4D10127184B0494CDE91F
:1058C00002032369009701936368E2682168207AE4
:1058D00002F06BFA04460028E3D195F90830002B5A
:1058E0000BDB03F01F025B099B0003F16043974051
:1058F00003F56143C3F880711F603046FFF74EFC2B
:10590000D0E700BF69570008DD540008ED800008AB
:10591000F3800008D1560008038000F069540008A5
:1059200030B50E4C416123688BB9206083600DE077
:10593000891A9A681D4641616AB113465A698A42BA
:10594000F6D935B1A860521A83605A6130BD00257E
:10595000F4E72060F7E798608260F7E78C25002085
:1059600038B500F053FA0025084B094C1A68236833
:10597000C31A2AB123B15169994203D3C91A51619B
:10598000206038BD55615B1A9268F2E78C250020D3
:105990008825002038B5134D2B685B6993B1124AF6
:1059A000022014681C4402F0D2FB204600F036FAB4
:1059B00000230E492A680B70D088800709D501237F
:1059C0000B7038BD022002F0C2FB022000F074FA16
:1059D000EEE79268002AF4D050690344012BEBD91A
:1059E000EFE700BF8C250020882500200D40002017
:1059F00070B516469DF81420C0E903360271049A6A
:105A0000BDF818300260002204460D468260C38053
:105A1000EEB900F0FBF92844A0619DB12E4602F0DA
:105A200015FA0546FFF79CFF31462046FFF778FF41
:105A3000104B1B68A34201D1FFF7ACFF284602F0D0
:105A400009FA02E0E36865617BB9002070BD00F0EF
:105A5000DDF93044A061002DE0D1E3686561002BE1
:105A6000DDD0204621689847D9E72046216898472D
:105A7000EBE700BF8C25002000220C490B687BB1AE
:105A800083420AD183687AB1936083681BB15A69F3
:105A900041690A445A61002070471A469B68EEE744
:105AA0000028EFD0022070470B60EEE78C25002025
:105AB00070B502F0D2F9144E05463478FCB9134B98
:105AC0001C60134B1C60134B1C8000F06DF901200F
:105AD00002F03DFB02F05EFB0F4B0246186020B95E
